{
  "contractName": "UserRegistration",
  "abi": [
    {
      "anonymous": false,
      "inputs": [
        {
          "indexed": false,
          "internalType": "address",
          "name": "userAddress",
          "type": "address"
        },
        {
          "indexed": false,
          "internalType": "string",
          "name": "username",
          "type": "string"
        },
        {
          "indexed": false,
          "internalType": "string",
          "name": "email",
          "type": "string"
        }
      ],
      "name": "UserRegistered",
      "type": "event"
    },
    {
      "inputs": [
        {
          "internalType": "address",
          "name": "",
          "type": "address"
        }
      ],
      "name": "users",
      "outputs": [
        {
          "internalType": "address",
          "name": "userAddress",
          "type": "address"
        },
        {
          "internalType": "string",
          "name": "username",
          "type": "string"
        },
        {
          "internalType": "string",
          "name": "email",
          "type": "string"
        }
      ],
      "stateMutability": "view",
      "type": "function"
    },
    {
      "inputs": [
        {
          "internalType": "string",
          "name": "_username",
          "type": "string"
        },
        {
          "internalType": "string",
          "name": "_email",
          "type": "string"
        }
      ],
      "name": "registerUser",
      "outputs": [],
      "stateMutability": "nonpayable",
      "type": "function"
    },
    {
      "inputs": [
        {
          "internalType": "address",
          "name": "_userAddress",
          "type": "address"
        }
      ],
      "name": "getUser",
      "outputs": [
        {
          "components": [
            {
              "internalType": "address",
              "name": "userAddress",
              "type": "address"
            },
            {
              "internalType": "string",
              "name": "username",
              "type": "string"
            },
            {
              "internalType": "string",
              "name": "email",
              "type": "string"
            }
          ],
          "internalType": "struct UserRegistration.User",
          "name": "",
          "type": "tuple"
        }
      ],
      "stateMutability": "view",
      "type": "function"
    }
  ],
  "bytecode": "0x608060405234801561001057600080fd5b50610cfa806100206000396000f3fe608060405234801561001057600080fd5b50600436106100415760003560e01c80631d2e4afd146100465780636f77926b14610062578063a87430ba14610092575b600080fd5b610060600480360381019061005b91906107c6565b6100c4565b005b61007c60048036038101906100779190610799565b61027e565b6040516100899190610a33565b60405180910390f35b6100ac60048036038101906100a79190610799565b6104e0565b6040516100bb9392919061098e565b60405180910390f35b6000825111610108576040517f08c379a00000000000000000000000000000000000000000000000000000000081526004016100ff906109f3565b60405180910390fd5b600081511161014c576040517f08c379a0000000000000000000000000000000000000000000000000000000008152600401610143906109d3565b60405180910390fd5b60405180606001604052803373ffffffffffffffffffffffffffffffffffffffff168152602001838152602001828152506000803373ffffffffffffffffffffffffffffffffffffffff1673ffffffffffffffffffffffffffffffffffffffff16815260200190815260200160002060008201518160000160006101000a81548173ffffffffffffffffffffffffffffffffffffffff021916908373ffffffffffffffffffffffffffffffffffffffff160217905550602082015181600101908051906020019061021e92919061063a565b50604082015181600201908051906020019061023b92919061063a565b509050507f92822564bab8864c3a47b34e8d23fbce5c46234eb5da261f94087b995ac0f33b3383836040516102729392919061098e565b60405180910390a15050565b6102866106c0565b60008060008473ffffffffffffffffffffffffffffffffffffffff1673ffffffffffffffffffffffffffffffffffffffff16815260200190815260200160002060010180546102d490610b4c565b905011610316576040517f08c379a000000000000000000000000000000000000000000000000000000000815260040161030d90610a13565b60405180910390fd5b6000808373ffffffffffffffffffffffffffffffffffffffff1673ffffffffffffffffffffffffffffffffffffffff1681526020019081526020016000206040518060600160405290816000820160009054906101000a900473ffffffffffffffffffffffffffffffffffffffff1673ffffffffffffffffffffffffffffffffffffffff1673ffffffffffffffffffffffffffffffffffffffff1681526020016001820180546103c590610b4c565b80601f01602080910402602001604051908101604052809291908181526020018280546103f190610b4c565b801561043e5780601f106104135761010080835404028352916020019161043e565b820191906000526020600020905b81548152906001019060200180831161042157829003601f168201915b5050505050815260200160028201805461045790610b4c565b80601f016020809104026020016040519081016040528092919081815260200182805461048390610b4c565b80156104d05780601f106104a5576101008083540402835291602001916104d0565b820191906000526020600020905b8154815290600101906020018083116104b357829003601f168201915b5050505050815250509050919050565b60006020528060005260406000206000915090508060000160009054906101000a900473ffffffffffffffffffffffffffffffffffffffff169080600101805461052990610b4c565b80601f016020809104026020016040519081016040528092919081815260200182805461055590610b4c565b80156105a25780601f10610577576101008083540402835291602001916105a2565b820191906000526020600020905b81548152906001019060200180831161058557829003601f168201915b5050505050908060020180546105b790610b4c565b80601f01602080910402602001604051908101604052809291908181526020018280546105e390610b4c565b80156106305780601f1061060557610100808354040283529160200191610630565b820191906000526020600020905b81548152906001019060200180831161061357829003601f168201915b5050505050905083565b82805461064690610b4c565b90600052602060002090601f01602090048101928261066857600085556106af565b82601f1061068157805160ff19168380011785556106af565b828001600101855582156106af579182015b828111156106ae578251825591602001919060010190610693565b5b5090506106bc91906106f7565b5090565b6040518060600160405280600073ffffffffffffffffffffffffffffffffffffffff16815260200160608152602001606081525090565b5b808211156107105760008160009055506001016106f8565b5090565b600061072761072284610a7a565b610a55565b90508281526020810184848401111561074357610742610c12565b5b61074e848285610b0a565b509392505050565b60008135905061076581610cad565b92915050565b600082601f8301126107805761077f610c0d565b5b8135610790848260208601610714565b91505092915050565b6000602082840312156107af576107ae610c1c565b5b60006107bd84828501610756565b91505092915050565b600080604083850312156107dd576107dc610c1c565b5b600083013567ffffffffffffffff8111156107fb576107fa610c17565b5b6108078582860161076b565b925050602083013567ffffffffffffffff81111561082857610827610c17565b5b6108348582860161076b565b9150509250929050565b61084781610ad8565b82525050565b61085681610ad8565b82525050565b600061086782610aab565b6108718185610ab6565b9350610881818560208601610b19565b61088a81610c21565b840191505092915050565b60006108a082610aab565b6108aa8185610ac7565b93506108ba818560208601610b19565b6108c381610c21565b840191505092915050565b60006108db601083610ac7565b91506108e682610c32565b602082019050919050565b60006108fe601483610ac7565b915061090982610c5b565b602082019050919050565b6000610921601c83610ac7565b915061092c82610c84565b602082019050919050565b600060608301600083015161094f600086018261083e565b5060208301518482036020860152610967828261085c565b91505060408301518482036040860152610981828261085c565b9150508091505092915050565b60006060820190506109a3600083018661084d565b81810360208301526109b58185610895565b905081810360408301526109c98184610895565b9050949350505050565b600060208201905081810360008301526109ec816108ce565b9050919050565b60006020820190508181036000830152610a0c816108f1565b9050919050565b60006020820190508181036000830152610a2c81610914565b9050919050565b60006020820190508181036000830152610a4d8184610937565b905092915050565b6000610a5f610a70565b9050610a6b8282610b7e565b919050565b6000604051905090565b600067ffffffffffffffff821115610a9557610a94610bde565b5b610a9e82610c21565b9050602081019050919050565b600081519050919050565b600082825260208201905092915050565b600082825260208201905092915050565b6000610ae382610aea565b9050919050565b600073ffffffffffffffffffffffffffffffffffffffff82169050919050565b82818337600083830152505050565b60005b83811015610b37578082015181840152602081019050610b1c565b83811115610b46576000848401525b50505050565b60006002820490506001821680610b6457607f821691505b60208210811415610b7857610b77610baf565b5b50919050565b610b8782610c21565b810181811067ffffffffffffffff82111715610ba657610ba5610bde565b5b80604052505050565b7f4e487b7100000000000000000000000000000000000000000000000000000000600052602260045260246000fd5b7f4e487b7100000000000000000000000000000000000000000000000000000000600052604160045260246000fd5b600080fd5b600080fd5b600080fd5b600080fd5b6000601f19601f8301169050919050565b7f456d61696c206973207265716972656400000000000000000000000000000000600082015250565b7f557365726e616d65206973207265717569726564000000000000000000000000600082015250565b7f5573657220686173206e6f74206265656e207265676973746572656400000000600082015250565b610cb681610ad8565b8114610cc157600080fd5b5056fea26469706673582212207f71ab4cbf5e4ee5c2a784d34f984cfe1adb550a3ee270e01dda18fb71d61f6064736f6c63430008060033",
  "immutableReferences": {},
  "source": "//SPDX-License-Identifier: UNLICENSED\r\n\r\npragma solidity ^0.8.6;\r\n\r\ncontract UserRegistration {\r\n    struct User {\r\n        address userAddress;\r\n        string username;\r\n        string email;\r\n    }\r\n\r\n    mapping(address => User) public users;\r\n\r\n    event UserRegistered(address userAddress, string username, string email);\r\n\r\n    function registerUser(string memory _username, string memory _email) public {\r\n        require(bytes(_username).length > 0, \"Username is required\");\r\n        require(bytes(_email).length > 0, \"Email is reqired\");\r\n\r\n        users[msg.sender] = User(msg.sender, _username, _email);\r\n\r\n        emit UserRegistered(msg.sender, _username, _email);\r\n    }\r\n\r\n    function getUser(address _userAddress) public view returns (User memory) {\r\n        require(bytes(users[_userAddress].username).length > 0, \"User has not been registered\");\r\n\r\n        return users[_userAddress];\r\n    }\r\n}",
  "sourcePath": "D:\\HackOnBlock\\HackOn-Titanz\\Solidity\\contracts\\UserReistration.sol",
  "compiler": {
    "name": "solc",
    "version": "0.8.6+commit.11564f7e.Emscripten.clang"
  },
  "schemaVersion": "3.4.16",
  "updatedAt": "2024-07-21T12:20:09.629Z",
  "devdoc": {
    "kind": "dev",
    "methods": {},
    "version": 1
  },
  "userdoc": {
    "kind": "user",
    "methods": {},
    "version": 1
  }
}