{
    "contractName": "JobPortal",
    "abi": [
        {
            "anonymous": false,
            "inputs": [
                {
                    "indexed": false,
                    "internalType": "uint256",
                    "name": "id",
                    "type": "uint256"
                },
                {
                    "indexed": false,
                    "internalType": "address",
                    "name": "employer",
                    "type": "address"
                },
                {
                    "indexed": false,
                    "internalType": "string",
                    "name": "title",
                    "type": "string"
                }
            ],
            "name": "JobCreated",
            "type": "event"
        },
        {
            "anonymous": false,
            "inputs": [
                {
                    "indexed": false,
                    "internalType": "uint256",
                    "name": "id",
                    "type": "uint256"
                }
            ],
            "name": "JobRemoved",
            "type": "event"
        },
        {
            "anonymous": false,
            "inputs": [
                {
                    "indexed": false,
                    "internalType": "uint256",
                    "name": "id",
                    "type": "uint256"
                },
                {
                    "indexed": false,
                    "internalType": "string",
                    "name": "title",
                    "type": "string"
                }
            ],
            "name": "JobUpdated",
            "type": "event"
        },
        {
            "inputs": [],
            "name": "JobCount",
            "outputs": [
                {
                    "internalType": "uint256",
                    "name": "",
                    "type": "uint256"
                }
            ],
            "stateMutability": "view",
            "type": "function"
        },
        {
            "inputs": [
                {
                    "internalType": "uint256",
                    "name": "",
                    "type": "uint256"
                }
            ],
            "name": "JobPosts",
            "outputs": [
                {
                    "internalType": "uint256",
                    "name": "id",
                    "type": "uint256"
                },
                {
                    "internalType": "address",
                    "name": "employer",
                    "type": "address"
                },
                {
                    "internalType": "string",
                    "name": "title",
                    "type": "string"
                },
                {
                    "internalType": "string",
                    "name": "description",
                    "type": "string"
                },
                {
                    "internalType": "string",
                    "name": "requirements",
                    "type": "string"
                },
                {
                    "internalType": "uint256",
                    "name": "salary",
                    "type": "uint256"
                },
                {
                    "internalType": "uint256",
                    "name": "applicationDeadline",
                    "type": "uint256"
                },
                {
                    "internalType": "bool",
                    "name": "isActive",
                    "type": "bool"
                }
            ],
            "stateMutability": "view",
            "type": "function"
        },
        {
            "inputs": [
                {
                    "internalType": "address",
                    "name": "",
                    "type": "address"
                },
                {
                    "internalType": "uint256",
                    "name": "",
                    "type": "uint256"
                }
            ],
            "name": "employerJobs",
            "outputs": [
                {
                    "internalType": "uint256",
                    "name": "",
                    "type": "uint256"
                }
            ],
            "stateMutability": "view",
            "type": "function"
        },
        {
            "inputs": [
                {
                    "internalType": "string",
                    "name": "_title",
                    "type": "string"
                },
                {
                    "internalType": "string",
                    "name": "_description",
                    "type": "string"
                },
                {
                    "internalType": "string",
                    "name": "_reqiurements",
                    "type": "string"
                },
                {
                    "internalType": "uint256",
                    "name": "_salary",
                    "type": "uint256"
                },
                {
                    "internalType": "uint256",
                    "name": "_applicationDeadine",
                    "type": "uint256"
                }
            ],
            "name": "createJob",
            "outputs": [],
            "stateMutability": "nonpayable",
            "type": "function"
        },
        {
            "inputs": [
                {
                    "internalType": "uint256",
                    "name": "_id",
                    "type": "uint256"
                },
                {
                    "internalType": "string",
                    "name": "_title",
                    "type": "string"
                },
                {
                    "internalType": "string",
                    "name": "_description",
                    "type": "string"
                },
                {
                    "internalType": "string",
                    "name": "_reqiurements",
                    "type": "string"
                },
                {
                    "internalType": "uint256",
                    "name": "_salary",
                    "type": "uint256"
                },
                {
                    "internalType": "uint256",
                    "name": "_applicationDeadine",
                    "type": "uint256"
                }
            ],
            "name": "updatedJob",
            "outputs": [],
            "stateMutability": "nonpayable",
            "type": "function"
        },
        {
            "inputs": [
                {
                    "internalType": "uint256",
                    "name": "_id",
                    "type": "uint256"
                }
            ],
            "name": "removeJob",
            "outputs": [],
            "stateMutability": "nonpayable",
            "type": "function"
        },
        {
            "inputs": [],
            "name": "getAllJobs",
            "outputs": [
                {
                    "components": [
                        {
                            "internalType": "uint256",
                            "name": "id",
                            "type": "uint256"
                        },
                        {
                            "internalType": "address",
                            "name": "employer",
                            "type": "address"
                        },
                        {
                            "internalType": "string",
                            "name": "title",
                            "type": "string"
                        },
                        {
                            "internalType": "string",
                            "name": "description",
                            "type": "string"
                        },
                        {
                            "internalType": "string",
                            "name": "requirements",
                            "type": "string"
                        },
                        {
                            "internalType": "uint256",
                            "name": "salary",
                            "type": "uint256"
                        },
                        {
                            "internalType": "uint256",
                            "name": "applicationDeadline",
                            "type": "uint256"
                        },
                        {
                            "internalType": "bool",
                            "name": "isActive",
                            "type": "bool"
                        }
                    ],
                    "internalType": "struct JobPortal.JobPost[]",
                    "name": "",
                    "type": "tuple[]"
                }
            ],
            "stateMutability": "view",
            "type": "function"
        }
    ],
    "bytecode": "0x608060405234801561001057600080fd5b5061166a806100206000396000f3fe608060405234801561001057600080fd5b506004361061007d5760003560e01c80637cf029a91161005b5780637cf029a9146100f3578063965a79fb1461010f5780639cb29cbd1461012d578063fc736cde146101495761007d565b80634a0669a914610082578063603d296b146100b95780637848a433146100d5575b600080fd5b61009c60048036038101906100979190610dfc565b610179565b6040516100b098979695949392919061121e565b60405180910390f35b6100d360048036038101906100ce9190610e29565b610386565b005b6100dd6104ce565b6040516100ea91906111c5565b60405180910390f35b61010d60048036038101906101089190610d2d565b6104d4565b005b6101176106df565b6040516101249190611163565b60405180910390f35b61014760048036038101906101429190610dfc565b610a21565b005b610163600480360381019061015e9190610ced565b610b22565b60405161017091906111c5565b60405180910390f35b60016020528060005260406000206000915090508060000154908060010160009054906101000a900473ffffffffffffffffffffffffffffffffffffffff16908060020180546101c890611427565b80601f01602080910402602001604051908101604052809291908181526020018280546101f490611427565b80156102415780601f1061021657610100808354040283529160200191610241565b820191906000526020600020905b81548152906001019060200180831161022457829003601f168201915b50505050509080600301805461025690611427565b80601f016020809104026020016040519081016040528092919081815260200182805461028290611427565b80156102cf5780601f106102a4576101008083540402835291602001916102cf565b820191906000526020600020905b8154815290600101906020018083116102b257829003601f168201915b5050505050908060040180546102e490611427565b80601f016020809104026020016040519081016040528092919081815260200182805461031090611427565b801561035d5780601f106103325761010080835404028352916020019161035d565b820191906000526020600020905b81548152906001019060200180831161034057829003601f168201915b5050505050908060050154908060060154908060070160009054906101000a900460ff16905088565b60006001600088815260200190815260200160002090503373ffffffffffffffffffffffffffffffffffffffff168160010160009054906101000a900473ffffffffffffffffffffffffffffffffffffffff1673ffffffffffffffffffffffffffffffffffffffff161461042f576040517f08c379a000000000000000000000000000000000000000000000000000000000815260040161042690611185565b60405180910390fd5b85816002019080519060200190610447929190610b53565b5084816003019080519060200190610460929190610b53565b5083816004019080519060200190610479929190610b53565b508281600501819055508181600601819055507f4b8f0934c14da92e4e0907a10b2b403a99fae79d2f3961b5c7f78744ed44340487876040516104bd9291906112b1565b60405180910390a150505050505050565b60005481565b6000808154809291906104e69061148a565b919050555060405180610100016040528060005481526020013373ffffffffffffffffffffffffffffffffffffffff1681526020018681526020018581526020018481526020018381526020018281526020016001151581525060016000805481526020019081526020016000206000820151816000015560208201518160010160006101000a81548173ffffffffffffffffffffffffffffffffffffffff021916908373ffffffffffffffffffffffffffffffffffffffff16021790555060408201518160020190805190602001906105c1929190610b53565b5060608201518160030190805190602001906105de929190610b53565b5060808201518160040190805190602001906105fb929190610b53565b5060a0820151816005015560c0820151816006015560e08201518160070160006101000a81548160ff021916908315150217905550905050600260003373ffffffffffffffffffffffffffffffffffffffff1673ffffffffffffffffffffffffffffffffffffffff16815260200190815260200160002060005490806001815401808255809150506001900390600052602060002001600090919091909150557f0b2f02f963ce3223e85a994fcae7a7d92895415750c09ddf28dd2790f9247d9560005433876040516106d0939291906111e0565b60405180910390a15050505050565b60606000805467ffffffffffffffff8111156106fe576106fd611560565b5b60405190808252806020026020018201604052801561073757816020015b610724610bd9565b81526020019060019003908161071c5790505b509050600080600190505b6000548111610a18576001600082815260200190815260200160002060070160009054906101000a900460ff1615610a05576001600082815260200190815260200160002060405180610100016040529081600082015481526020016001820160009054906101000a900473ffffffffffffffffffffffffffffffffffffffff1673ffffffffffffffffffffffffffffffffffffffff1673ffffffffffffffffffffffffffffffffffffffff16815260200160028201805461080390611427565b80601f016020809104026020016040519081016040528092919081815260200182805461082f90611427565b801561087c5780601f106108515761010080835404028352916020019161087c565b820191906000526020600020905b81548152906001019060200180831161085f57829003601f168201915b5050505050815260200160038201805461089590611427565b80601f01602080910402602001604051908101604052809291908181526020018280546108c190611427565b801561090e5780601f106108e35761010080835404028352916020019161090e565b820191906000526020600020905b8154815290600101906020018083116108f157829003601f168201915b5050505050815260200160048201805461092790611427565b80601f016020809104026020016040519081016040528092919081815260200182805461095390611427565b80156109a05780601f10610975576101008083540402835291602001916109a0565b820191906000526020600020905b81548152906001019060200180831161098357829003601f168201915b5050505050815260200160058201548152602001600682015481526020016007820160009054906101000a900460ff1615151515815250508383815181106109eb576109ea611531565b5b60200260200101819052508180610a019061148a565b9250505b8080610a109061148a565b915050610742565b50819250505090565b60006001600083815260200190815260200160002090503373ffffffffffffffffffffffffffffffffffffffff168160010160009054906101000a900473ffffffffffffffffffffffffffffffffffffffff1673ffffffffffffffffffffffffffffffffffffffff1614610aca576040517f08c379a0000000000000000000000000000000000000000000000000000000008152600401610ac1906111a5565b60405180910390fd5b60008160070160006101000a81548160ff0219169083151502179055507f6daba074dba7f6e2f5fd289e20080bf7047e96329b083fc1dab326fbefd762bb82604051610b1691906111c5565b60405180910390a15050565b60026020528160005260406000208181548110610b3e57600080fd5b90600052602060002001600091509150505481565b828054610b5f90611427565b90600052602060002090601f016020900481019282610b815760008555610bc8565b82601f10610b9a57805160ff1916838001178555610bc8565b82800160010185558215610bc8579182015b82811115610bc7578251825591602001919060010190610bac565b5b509050610bd59190610c36565b5090565b60405180610100016040528060008152602001600073ffffffffffffffffffffffffffffffffffffffff16815260200160608152602001606081526020016060815260200160008152602001600081526020016000151581525090565b5b80821115610c4f576000816000905550600101610c37565b5090565b6000610c66610c6184611306565b6112e1565b905082815260208101848484011115610c8257610c81611594565b5b610c8d8482856113e5565b509392505050565b600081359050610ca481611606565b92915050565b600082601f830112610cbf57610cbe61158f565b5b8135610ccf848260208601610c53565b91505092915050565b600081359050610ce78161161d565b92915050565b60008060408385031215610d0457610d0361159e565b5b6000610d1285828601610c95565b9250506020610d2385828601610cd8565b9150509250929050565b600080600080600060a08688031215610d4957610d4861159e565b5b600086013567ffffffffffffffff811115610d6757610d66611599565b5b610d7388828901610caa565b955050602086013567ffffffffffffffff811115610d9457610d93611599565b5b610da088828901610caa565b945050604086013567ffffffffffffffff811115610dc157610dc0611599565b5b610dcd88828901610caa565b9350506060610dde88828901610cd8565b9250506080610def88828901610cd8565b9150509295509295909350565b600060208284031215610e1257610e1161159e565b5b6000610e2084828501610cd8565b91505092915050565b60008060008060008060c08789031215610e4657610e4561159e565b5b6000610e5489828a01610cd8565b965050602087013567ffffffffffffffff811115610e7557610e74611599565b5b610e8189828a01610caa565b955050604087013567ffffffffffffffff811115610ea257610ea1611599565b5b610eae89828a01610caa565b945050606087013567ffffffffffffffff811115610ecf57610ece611599565b5b610edb89828a01610caa565b9350506080610eec89828a01610cd8565b92505060a0610efd89828a01610cd8565b9150509295509295509295565b6000610f168383611087565b905092915050565b610f278161139d565b82525050565b610f368161139d565b82525050565b6000610f4782611347565b610f51818561136a565b935083602082028501610f6385611337565b8060005b85811015610f9f5784840389528151610f808582610f0a565b9450610f8b8361135d565b925060208a01995050600181019050610f67565b50829750879550505050505092915050565b610fba816113af565b82525050565b610fc9816113af565b82525050565b6000610fda82611352565b610fe4818561137b565b9350610ff48185602086016113f4565b610ffd816115a3565b840191505092915050565b600061101382611352565b61101d818561138c565b935061102d8185602086016113f4565b611036816115a3565b840191505092915050565b600061104e601c8361138c565b9150611059826115b4565b602082019050919050565b6000611071601d8361138c565b915061107c826115dd565b602082019050919050565b6000610100830160008301516110a06000860182611145565b5060208301516110b36020860182610f1e565b50604083015184820360408601526110cb8282610fcf565b915050606083015184820360608601526110e58282610fcf565b915050608083015184820360808601526110ff8282610fcf565b91505060a083015161111460a0860182611145565b5060c083015161112760c0860182611145565b5060e083015161113a60e0860182610fb1565b508091505092915050565b61114e816113db565b82525050565b61115d816113db565b82525050565b6000602082019050818103600083015261117d8184610f3c565b905092915050565b6000602082019050818103600083015261119e81611041565b9050919050565b600060208201905081810360008301526111be81611064565b9050919050565b60006020820190506111da6000830184611154565b92915050565b60006060820190506111f56000830186611154565b6112026020830185610f2d565b81810360408301526112148184611008565b9050949350505050565b600061010082019050611234600083018b611154565b611241602083018a610f2d565b81810360408301526112538189611008565b905081810360608301526112678188611008565b9050818103608083015261127b8187611008565b905061128a60a0830186611154565b61129760c0830185611154565b6112a460e0830184610fc0565b9998505050505050505050565b60006040820190506112c66000830185611154565b81810360208301526112d88184611008565b90509392505050565b60006112eb6112fc565b90506112f78282611459565b919050565b6000604051905090565b600067ffffffffffffffff82111561132157611320611560565b5b61132a826115a3565b9050602081019050919050565b6000819050602082019050919050565b600081519050919050565b600081519050919050565b6000602082019050919050565b600082825260208201905092915050565b600082825260208201905092915050565b600082825260208201905092915050565b60006113a8826113bb565b9050919050565b60008115159050919050565b600073ffffffffffffffffffffffffffffffffffffffff82169050919050565b6000819050919050565b82818337600083830152505050565b60005b838110156114125780820151818401526020810190506113f7565b83811115611421576000848401525b50505050565b6000600282049050600182168061143f57607f821691505b6020821081141561145357611452611502565b5b50919050565b611462826115a3565b810181811067ffffffffffffffff8211171561148157611480611560565b5b80604052505050565b6000611495826113db565b91507fffffffffffffffffffffffffffffffffffffffffffffffffffffffffffffffff8214156114c8576114c76114d3565b5b600182019050919050565b7f4e487b7100000000000000000000000000000000000000000000000000000000600052601160045260246000fd5b7f4e487b7100000000000000000000000000000000000000000000000000000000600052602260045260246000fd5b7f4e487b7100000000000000000000000000000000000000000000000000000000600052603260045260246000fd5b7f4e487b7100000000000000000000000000000000000000000000000000000000600052604160045260246000fd5b600080fd5b600080fd5b600080fd5b600080fd5b6000601f19601f8301169050919050565b7f4f6e6c792074686520456d706c6f7965722063616e2075706461746500000000600082015250565b7f4f6e6c7920456d706c6f7965722063616e2052656d6f7665204a6f6273000000600082015250565b61160f8161139d565b811461161a57600080fd5b50565b611626816113db565b811461163157600080fd5b5056fea2646970667358221220e0357b4e6fa65f20efc49ebfa089247125a08a7b72e0fc99d2396176665d862d64736f6c63430008060033",
    "immutableReferences": {},
    "source": "//SPDX-License-Identifier: UNLICENSED\r\n\r\npragma solidity ^0.8.6;\r\n\r\ncontract JobPortal {\r\n    struct JobPost {\r\n        uint id;\r\n        address employer;\r\n        string title;\r\n        string description;\r\n        string requirements;\r\n        uint salary;\r\n        uint applicationDeadline;\r\n        bool isActive;\r\n    }\r\n\r\n    uint public JobCount;\r\n    mapping(uint => JobPost) public JobPosts;\r\n    mapping(address => uint[]) public employerJobs;\r\n\r\n    event JobCreated(uint id, address employer, string title);\r\n    event JobUpdated(uint id, string title);\r\n    event JobRemoved(uint id);\r\n\r\n    function createJob(string memory _title, string memory _description, string memory _reqiurements, uint _salary, uint _applicationDeadine) public {\r\n        JobCount++;\r\n        JobPosts[JobCount] = JobPost(JobCount, msg.sender, _title, _description, _reqiurements, _salary, _applicationDeadine, true);\r\n        employerJobs[msg.sender].push(JobCount);\r\n\r\n        emit JobCreated(JobCount, msg.sender, _title);\r\n    }\r\n\r\n    function updatedJob(uint _id, string memory _title, string memory _description, string memory _reqiurements, uint _salary, uint _applicationDeadine) public {\r\n        JobPost storage job = JobPosts[_id];\r\n        require(job.employer == msg.sender, \"Only the Employer can update\");\r\n        job.title = _title;\r\n        job.description = _description;\r\n        job.requirements = _reqiurements;\r\n        job.salary = _salary;\r\n        job.applicationDeadline = _applicationDeadine;\r\n\r\n        emit JobUpdated(_id, _title);\r\n    }\r\n\r\n    function removeJob(uint _id) public {\r\n        JobPost storage job = JobPosts[_id];\r\n        require(job.employer == msg.sender, \"Only Employer can Remove Jobs\");\r\n        job.isActive = false;\r\n\r\n        emit JobRemoved(_id);\r\n    }\r\n\r\n    function getAllJobs() public view returns (JobPost[] memory){\r\n        JobPost[] memory jobs = new JobPost[](JobCount);\r\n        uint count = 0;\r\n        for(uint i=1; i<=JobCount; i++){\r\n            if(JobPosts[i].isActive){\r\n                jobs[count] = JobPosts[i];\r\n                count++; \r\n            }\r\n        }\r\n        return jobs;\r\n    }\r\n}\r\n\r\n",
    "sourcePath": "D:\\HackOnBlock\\HackOn-Titanz\\Solidity\\contracts\\JobPortalMangement.sol",
    "compiler": {
        "name": "solc",
        "version": "0.8.6+commit.11564f7e.Emscripten.clang"
    },
    "schemaVersion": "3.4.16",
    "updatedAt": "2024-07-17T18:08:01.922Z",
    "devdoc": {
        "kind": "dev",
        "methods": {},
        "version": 1
    },
    "userdoc": {
        "kind": "user",
        "methods": {},
        "version": 1
    }
}